:020000040800F2
:1000000000000520A5480008194800081D48000800
:100010002148000825480008294800080000000081
:100020000000000000000000000000002D48000853
:100030003148000800000000354800083948000831
:10004000F5480008F5480008F5480008F54800089C
:10005000F5480008F5480008F5480008F54800088C
:10006000F5480008F5480008F5480008F54800087C
:10007000F5480008F5480008F5480008F54800086C
:10008000F5480008F5480008F5480008F54800085C
:10009000F5480008F5480008F5480008F54800084C
:1000A000F5480008F5480008F5480008F54800083C
:1000B000F5480008F5480008F5480008F54800082C
:1000C000F5480008F5480008F5480008F54800081C
:1000D000F5480008F5480008F5480008F54800080C
:1000E000F5480008F5480008F5480008F5480008FC
:1000F000F5480008F5480008F5480008F5480008EC
:10010000F5480008F5480008F5480008F5480008DB
:10011000F5480008F5480008F5480008F5480008CB
:1001200049480008F5480008F5480008F548000867
:10013000F5480008F5480008F5480008F5480008AB
:10014000F5480008F5480008F5480008F54800089B
:10015000F5480008F5480008F5480008F54800088B
:10016000F5480008F5480008F5480008F54800087B
:10017000F5480008F5480008F548000800000000B0
:10018000F5480008F5480008F5480008F54800085B
:10019000F5480008F5480008F5480008F54800084B
:1001A000F5480008F5480008F5480008F54800083B
:1001B000F5480008F5480008F5480008F54800082B
:0801C000F5480008F5480008AD
:1001D00010B5054C237833B9044B13B10448AFF381
:1001E00000800123237010BD9C000020000000004F
:1001F000ECF4000808B5034B1BB103490348AFF307
:10020000008008BD00000000A0000020ECF4000801
:1002100001F0FF01102A2BDB10F0070F08D010F8B7
:10022000013B013A8B422DD010F0070F42B3F6D1BB
:10023000F0B441EA012141EA014122F007047FF0D4
:1002400000070023F0E80256083C85EA010586EA2B
:10025000010685FA47F5A3FA87F586FA47F6A5FA67
:1002600087F68EB9EED1F0BC01F0FF0102F0070273
:1002700032B110F8013B013A83EA010313B1F8D11E
:100280000020704701387047002D06BF35460338FF
:10029000073815F0010F07D1013015F4807F02BF38
:1002A000013015F4C03F0130F0BC0138704700BF89
:1002B00081F0004102E000BF83F0004330B54FEA17
:1002C00041044FEA430594EA050F08BF90EA020F84
:1002D0001FBF54EA000C55EA020C7FEA645C7FEA17
:1002E000655C00F0E2804FEA5454D4EB5555B8BF3A
:1002F0006D420CDD2C4480EA020281EA030382EAAB
:10030000000083EA010180EA020281EA0303362D3C
:1003100088BF30BD11F0004F4FEA01314FF4801C0F
:100320004CEA113102D0404261EB410113F0004F21
:100330004FEA03334CEA133302D0524263EB4303D8
:1003400094EA050F00F0A780A4F10104D5F1200E76
:100350000DDB02FA0EFC22FA05F2801841F10001D1
:1003600003FA0EF2801843FA05F359410EE0A5F1A5
:1003700020050EF1200E012A03FA0EFC28BF4CF0D6
:10038000020C43FA05F3C01851EBE37101F000458C
:1003900007D54FF0000EDCF1000C7EEB00006EEB99
:1003A0000101B1F5801F1BD3B1F5001F0CD3490823
:1003B0005FEA30004FEA3C0C04F101044FEA44527A
:1003C00012F5800F80F09A80BCF1004F08BF5FEA01
:1003D000500C50F1000041EB045141EA050130BDE1
:1003E0005FEA4C0C404141EB010111F4801FA4F184
:1003F0000104E9D191F0000F04BF01460020B1FAD9
:1004000081F308BF2033A3F10B03B3F120020CDA10
:100410000C3208DD02F1140CC2F10C0201FA0CF0EE
:1004200021FA02F10CE002F11402D8BFC2F1200C53
:1004300001FA02F120FA0CFCDCBF41EA0C01904009
:10044000E41AA2BF01EB0451294330BD6FEA040452
:100450001F3C1CDA0C340EDC04F11404C4F120023D
:1004600020FA04F001FA02F340EA030021FA04F34F
:1004700045EA030130BDC4F10C04C4F1200220FAA6
:1004800002F001FA04F340EA0300294630BD21FAE4
:1004900004F0294630BD94F0000F83F4801306BFAA
:1004A00081F480110134013D4EE77FEA645C18BF9E
:1004B0007FEA655C29D094EA050F08BF90EA020F35
:1004C00005D054EA000C04BF1946104630BD91EA2D
:1004D000030F1EBF0021002030BD5FEA545C05D130
:1004E0004000494128BF41F0004130BD14F580046F
:1004F0003CBF01F5801130BD01F0004545F0FE41E3
:1005000041F470014FF0000030BD7FEA645C1ABF17
:10051000194610467FEA655C1CBF0B46024650EA4E
:10052000013406BF52EA033591EA030F41F400217A
:1005300030BD00BF90F0000F04BF0021704730B500
:100540004FF4806404F132044FF000054FF00001D5
:1005500050E700BF90F0000F04BF0021704730B596
:100560004FF4806404F1320410F0004548BF40426B
:100570004FF000013EE700BF42004FEAE2014FEAC0
:1005800031014FEA02701FBF12F07F4393F07F4F9B
:1005900081F06051704732F07F4208BF704793F09E
:1005A0007F4F04BF41F40021704730B54FF46074B1
:1005B00001F0004521F000411CE700BF50EA0102B4
:1005C00008BF704730B54FF000050AE050EA01025D
:1005D00008BF704730B511F0004502D5404261EBCD
:1005E00041014FF4806404F132045FEA915C3FF40E
:1005F000D8AE4FF003025FEADC0C18BF03325FEAAB
:10060000DC0C18BF033202EBDC02C2F1200300FA5B
:1006100003FC20FA02F001FA03FE40EA0E0021FA80
:1006200002F11444BDE600BF70B54FF0FF0C4CF46E
:10063000E06C1CEA11541DBF1CEA135594EA0C0F20
:1006400095EA0C0F00F0DEF82C4481EA030621EA5B
:100650004C5123EA4C5350EA013518BF52EA033596
:1006600041F4801143F4801338D0A0FB02CE4FF048
:100670000005E1FB02E506F00042E0FB03E54FF078
:100680000006E1FB03569CF0000F18BF4EF0010E70
:10069000A4F1FF04B6F5007F64F5407404D25FEA6C
:1006A0004E0E6D4146EB060642EAC62141EA55511F
:1006B0004FEAC52040EA5E504FEACE2EB4F1FD0C61
:1006C00088BFBCF5E06F1ED8BEF1004F08BF5FEADF
:1006D000500E50F1000041EB045170BD06F0004691
:1006E00046EA010140EA020081EA0301B4EB5C043E
:1006F000C2BFD4EB0C0541EA045170BD41F4801136
:100700004FF0000E013C00F3AB8014F1360FDEBF5A
:10071000002001F0004170BDC4F10004203C35DA36
:100720000C341BDC04F11404C4F1200500FA05F3B9
:1007300020FA04F001FA05F240EA020001F000425A
:1007400021F0004110EBD37021FA04F642EB0601D0
:100750005EEA430E08BF20EAD37070BDC4F10C04FA
:10076000C4F1200500FA04F320FA05F001FA04F2BE
:1007700040EA020001F0004110EBD37041F10001AA
:100780005EEA430E08BF20EAD37070BDC4F12005B5
:1007900000FA05F24EEA020E20FA04F301FA05F21D
:1007A00043EA020321FA04F001F0004121FA04F2C5
:1007B00020EA020000EBD3705EEA430E08BF20EA95
:1007C000D37070BD94F0000F0FD101F000464000CF
:1007D00041EB010111F4801F08BF013CF7D041EA51
:1007E000060195F0000F18BF704703F00046520055
:1007F00043EB030313F4801F08BF013DF7D043EA26
:100800000603704794EA0C0F0CEA135518BF95EADB
:100810000C0F0CD050EA410618BF52EA4306D1D162
:1008200081EA030101F000414FF0000070BD50EA81
:10083000410606BF1046194652EA430619D094EA0B
:100840000C0F02D150EA013613D195EA0C0F05D1F5
:1008500052EA03361CBF104619460AD181EA030149
:1008600001F0004141F0FE4141F470014FF0000001
:1008700070BD41F0FE4141F4780170BD70B54FF09C
:10088000FF0C4CF4E06C1CEA11541DBF1CEA13551C
:1008900094EA0C0F95EA0C0F00F0A7F8A4EB0504FE
:1008A00081EA030E52EA03354FEA013100F08880F5
:1008B0004FEA03334FF0805545EA131343EA1263BE
:1008C0004FEA022245EA111545EA10654FEA002673
:1008D0000EF000419D4208BF964244F1FD0404F52C
:1008E000407402D25B084FEA3202B61A65EB030588
:1008F0005B084FEA32024FF480104FF4002CB6EB45
:10090000020E75EB030E22BFB61A754640EA0C00C4
:100910005B084FEA3202B6EB020E75EB030E22BF04
:10092000B61A754640EA5C005B084FEA3202B6EB45
:10093000020E75EB030E22BFB61A754640EA9C0004
:100940005B084FEA3202B6EB020E75EB030E22BFD4
:10095000B61A754640EADC0055EA060E18D04FEA92
:10096000051545EA16754FEA06164FEAC30343EA32
:1009700052734FEAC2025FEA1C1CC0D111F4801FFF
:100980000BD141EA00014FF000004FF0004CB6E7F8
:1009900011F4801F04BF01430020B4F1FD0C88BF97
:1009A000BCF5E06F3FF6AFAEB5EB030C04BFB6EBA2
:1009B000020C5FEA500C50F1000041EB045170BD95
:1009C0000EF0004E4EEA113114EB5C04C2BFD4EBC2
:1009D0000C0541EA045170BD41F480114FF0000E46
:1009E000013C90E645EA060E8DE60CEA135594EAC2
:1009F0000C0F08BF95EA0C0F3FF43BAF94EA0C0FC5
:100A00000AD150EA01347FF434AF95EA0C0F7FF439
:100A100025AF104619462CE795EA0C0F06D152EA8D
:100A200003353FF4FDAE1046194622E750EA410671
:100A300018BF52EA43067FF4C5AE50EA41047FF482
:100A40000DAF52EA43057FF4EBAE12E74FF0FF3CE7
:100A500006E000BF4FF0010C02E000BF4FF0010CB8
:100A60004DF804CD4FEA410C7FEA6C5C4FEA430C31
:100A700018BF7FEA6C5C1BD001B050EA410C0CBF80
:100A800052EA430C91EA030F02BF90EA020F0020E2
:100A9000704710F1000F91EA030F58BF994208BF49
:100AA00090422CBFD8176FEAE37040F00100704706
:100AB0004FEA410C7FEA6C5C02D150EA013C07D15D
:100AC0004FEA430C7FEA6C5CD6D152EA033CD3D0A8
:100AD0005DF8040B704700BF8446104662468C46A2
:100AE0001946634600E000BF01B5FFF7B7FF0028D5
:100AF00048BF10F1000F01BD4DF808EDFFF7F4FFFE
:100B00000CBF012000205DF808FB00BF4DF808ED88
:100B1000FFF7EAFF34BF012000205DF808FB00BFAB
:100B20004DF808EDFFF7E0FF94BF012000205DF8CD
:100B300008FB00BF4DF808EDFFF7CEFF94BF012082
:100B400000205DF808FB00BF4DF808EDFFF7C4FF7B
:100B500034BF012000205DF808FB00BF4FEA4102CE
:100B600012F5001215D211D56FF47873B3EB6252FF
:100B700012D94FEAC12343F0004343EA505311F026
:100B8000004F23FA02F018BF404270474FF00000B8
:100B9000704750EA013005D111F0004008BF6FF0F6
:100BA000004070474FF00000704700BF4FEA41021D
:100BB000B2F1E04324BFB3F5001CDCF1FE5C0DD9BB
:100BC00001F0004C4FEAC0024CEA5070B2F1004F05
:100BD00040EB830008BF20F00100704711F0804F08
:100BE00021D113F13872BCBF01F00040704741F4CD
:100BF00080114FEA5252C2F11802C2F1200C10FAD1
:100C00000CF320FA02F018BF40F001004FEAC123B4
:100C10004FEAD32303FA0CFC40EA0C0023FA02F358
:100C20004FEA4303CCE77FEA625307D150EA01332E
:100C30001EBF4FF0FE4040F44000704701F00040FE
:100C400040F0FE4040F40000704700BF53B94AB97D
:100C5000002908BF00281CBF4FF0FF314FF0FF30C4
:100C600000F072B9ADF1080C6DE904CE00F006F8A1
:100C7000DDF804E0DDE9022304B070472DE9F04718
:100C8000089E04468846002B4BD18A42154667D9F8
:100C9000B2FA82F24AB1C2F1200701FA02F320FA55
:100CA00007F7954047EA030894404FEA154E230C96
:100CB000B8FBFEF71FFA85FC0EFB178843EA0843D2
:100CC00007FB0CF1994209D9EB1807F1FF3080F0CE
:100CD0001B81994240F21881023F2B445B1AA4B257
:100CE000B3FBFEF00EFB103344EA034400FB0CFCA4
:100CF000A44509D92C1900F1FF3380F00781A445E0
:100D000040F2048102382C4440EA0740A4EB0C0472
:100D100000271EB1D4400023C6E900433946BDE890
:100D2000F0878B4209D9002E00F0EB800027C6E93E
:100D3000000138463946BDE8F087B3FA83F7002F43
:100D400047D18B4202D3824200F2FA80841A61EBCF
:100D5000030301209846002EE0D0C6E90048DDE7F5
:100D600002B9FFDEB2FA82F2002A40F08F80491BFE
:100D70004FEA154E1FFA85F80127B1FBFEFC230C44
:100D80000EFB1C1143EA014308FB0CF1994207D901
:100D9000EB180CF1FF3002D2994200F2CD8084466C
:100DA000591AA3B2B1FBFEF00EFB101443EA04443F
:100DB00008FB00F8A04507D92C1900F1FF3302D237
:100DC000A04500F2B6801846A4EB080440EA0C40A7
:100DD0009FE7C7F1200CBB4022FA0CFE4EEA030E3F
:100DE00001FA07F420FA0CF521FA0CF34FEA1E4839
:100DF0002543B3FBF8F92C0C08FB19331FFA8EFAC4
:100E000044EA034309FB0AF49C4202FA07F200FA9F
:100E100007F10BD91EEB030309F1FF3080F0878047
:100E20009C4240F28480A9F1020973441B1BADB2BD
:100E3000B3FBF8F008FB103345EA034400FB0AFA61
:100E4000A24508D91EEB040400F1FF336BD2A24582
:100E500069D90238744440EA0940A0FB0289A4EB36
:100E60000A044C45C2464B4654D351D0002E69D09B
:100E7000B1EB0A0564EB030404FA0CFCFD40FC40F2
:100E80004CEA0505C6E90054002747E7C2F12003F4
:100E900020FA03F7954001FA02F021FA03F34FEA32
:100EA000154E3843010CB3FBFEF71FFA85F80EFB15
:100EB000173341EA034107FB08F38B4204FA02F4BB
:100EC00007D9691807F1FF3C2FD28B422DD9023F79
:100ED0002944CB1A81B2B3FBFEF00EFB103341EA7A
:100EE000034100FB08F38B4207D9691800F1FF3C6E
:100EF00017D28B4215D902382944C91A40EA07474C
:100F00003BE73746304609E70746E7E61846FBE683
:100F10004145ABD2B8EB020A69EB0E020138134629
:100F2000A4E76046E9E7184695E76746D1E78146BA
:100F30007CE702382C4447E7ACF1020C2B442FE746
:100F4000384608E73746E9E6704700BF0E4A4FF4D7
:100F50007A730E491278B3FBF2F310B504460868B1
:100F6000B0FBF3F000F012FB08B90F2C01D90120FF
:100F700010BD002221464FF0FF3000F0C3FA044BB1
:100F800000201C6010BD00BF0000002008000020F1
:100F90000400002008B5032000F0A0FA0020FFF7AD
:100FA000D5FF03F083FB002008BD00BF034A044BBC
:100FB00011681B780B441360704700BFC892012072
:100FC00000000020014B1868704700BFC892012044
:100FD00038B50446FFF7F6FF0546631C02D0044B04
:100FE0001B781C44FFF7EEFF401BA042FAD338BD2C
:100FF00000000020002800F09280F8B5056C04463F
:10100000002D00F08280236CDB0604D50023012034
:1010100084F83C30F8BD236C4E4A4F491A4023688F
:101020004E4D42F0020222644A6822F440324A6085
:101030004A68606802434A605A68216922F48072F3
:10104000D4F808C0E7685A605868A66A40EA0120E8
:10105000AE425860586820F040705860596841EAC4
:101060000C015960996821F4006199609A6842EA1C
:1010700007029A6055D09968E06A21F07061996022
:101080009A6816439E60996821F0405199609A6869
:1010900002439A609968A56921F0020194F8200042
:1010A00099609A6842EA45029A60002842D15A68DB
:1010B00022F400625A60D86A0026E56920F47000C4
:1010C00094F830C06A1E6769D8623046DD6A45EA26
:1010D0000255DD629D6825F400759D60996841EABE
:1010E0004C219960996821F4806199609A6842EA7C
:1010F00087229A606664236C23F0030343F00103A4
:101100002364002384F83C30F8BD03F0E7FA6564FB
:10111000236C84F83C50DB063FF578AF7BE7012079
:1011200070479A6822F070629A609A6822F0405282
:101130009A60AFE75868626A40F40060511E5860D8
:101140005A6822F460425A605A6842EA41325A6050
:10115000B1E700BFFDEEFFFF002301400100000FDB
:10116000F0B5044683B0002094F83C300190012B88
:1011700000F0898025680120AB6884F83C00DE0718
:1011800014D4474B474E1868AB68A6FB006043F089
:101190000103800CAB6000EB40000190019B2BB180
:1011A00001980138019001980028F9D1A868236CB2
:1011B00010F0010044D03C48184040F48070206496
:1011C0006B68580505D5236C23F4405343F48053D2
:1011D0002364236C13F4805347D0636C23F006031D
:1011E0006364A76B1346DFF8D8E00A466FF0220C61
:1011F0002E482F49002684F83C60F96405F14C0123
:10120000C7E90FE0C5F800C038466F6847F080674F
:101210006F60AF6847F48077AF6000F06FFA254BDE
:101220002268586810F01F0013D1936813F04053E0
:101230000DD19168184641F08041916003B0F0BD36
:1012400043F010032364636C43F00103636403B051
:10125000F0BD19498A420AD05B68DB0602D41749FF
:101260008A4213D0002003B0F0BD6364B9E79368ED
:1012700013F0405F03D1936843F0804393600D4BBC
:1012800000205B68E3E7022003B0F0BD886810F03F
:101290004050E7D18B6843F080438B60D7E700BFB5
:1012A0000800002083DE1B43FEF8FFFFC912000880
:1012B000D912000800230140002001400022014013
:1012C000F1120008704700BF08B5806BFFF7FAFF06
:1012D00008BD00BF704700BF08B54022836B1A6489
:1012E00018465A6C42F004025A64FFF7F3FF08BD37
:1012F000836B1A6C12F0500F1A6C10B523D142F4A4
:10130000007219681A648A6812F0405F17D19A69EE
:10131000AAB9CA6A12F4700F02D08A6850050ED4B6
:101320004A6822F020024A601A6C22F480721A6421
:101330001A6CD10403D41A6C42F001021A641846E4
:1013400002F006FC10BDD20604D49B6BBDE8104031
:10135000DB6C18471846FFF7BDFF10BD90F83C3016
:101360000022F0B5012B83B0019200F09D800E6841
:1013700001220368B7B2092E80F83C2007EB47052D
:101380008A682FD9B6F1004F2CD01E3D4FF0070CC4
:10139000DC680CFA05FCDFF838E124EA0C04764539
:1013A000DC6000F0848002FA05F5DA681543DD6040
:1013B0004968062901EB810226D8053A1F24596B9A
:1013C000944007FA02F221EA04015963596B0A4377
:1013D0005A633E4A934229D0002380F83C30184695
:1013E00003B0F0BD4FF0070C1C69AA4049680CFA25
:1013F00005F5062924EA05051D611D6945EA020572
:1014000001EB81021D61D8D90C2938D8A2F123043F
:101410001F25196BA54007FA04F221EA050119639B
:101420001C6B1443294A93421C63D5D1B6F1004F7B
:1014300033D0122E40D0264B9E4243D1254A244918
:1014400053688E4243F400035360C5D102F14672E3
:10145000214B02F52E321B6802F28332A2FB0323DA
:101460009B0C03EB83035B000193019B002BB3D028
:10147000019B013B0193019B002BF9D1ACE7A2F149
:1014800041011F25DC6A8D4007FA01F224EA0504B8
:10149000DC62D96A0A43DA629BE7D2F8043323F4A8
:1014A0004003C2F8043397E7022003B0F0BDDD68C3
:1014B00045EA0265DD607BE7064A536843F4800332
:1014C000536089E7112EB9D086E700BF00200140A4
:1014D000120000100023014008000020074900020C
:1014E000074BCA6800F4E06010B44FF6FF042240D6
:1014F0005DF8044B13431843C860704700ED00E0EB
:101500000000FA05174BDB68C3F3022330B4C3F1C4
:1015100007051C1D042D28BF0425062C18D9033BE4
:101520004FF0FF349C4022EA04044FF0FF320028C1
:1015300002FA05F221EA020101FA03F242EA040288
:101540004FEA0212D2B206DB074B1A5430BC704786
:1015500000242346E9E700F00F00044B1A5430BC86
:10156000704700BF00ED00E000E400E014ED00E093
:10157000002807DB00F01F0101234009024A8B40CD
:1015800042F82030704700BF00E100E00138B0F1C0
:10159000807F0DD2074B0022072130B4F025064C86
:1015A0005860104684F823509A60196030BC704728
:1015B0000120704710E000E000ED00E008B502F007
:1015C000BFFA08BDF8B50446FFF7FCFC002C53D069
:1015D000022223680021054684F835201A6884F821
:1015E000341022F001021A6005E0FFF7EBFC401B0B
:1015F00005283AD823681A68D107F6D4D4E901201F
:10160000E16802431F68D4E904050A430243206AE3
:10161000D4E906612A43354D32433D400A43616AAD
:101620000243042942EA050228D01A605A6922F0CE
:1016300007021143DAB22E4D5961103A2D492E4856
:10164000A5FB02521940012513090022C05C032B9F
:101650004FF03F0388BF0431E06583401046A16529
:101660008B60626584F83550F8BD0323202218464C
:10167000626584F83530F8BD0120F8BDD4E90B511E
:10168000A76A45EA010047F0040102431A605A695B
:1016900022F007021143002DCCD07EB1B6F5005FD9
:1016A00016D0022F03D9032FC4D1EA01C2D50123DA
:1016B00040221846626584F83530F8BD012F03D00A
:1016C000F3D3022FB6D1F0E7B5F1C07FB2D1EEE788
:1016D000032FAFD801A252F827F000BFAF160008C1
:1016E000AB160008AF160008C91600083F8010F0BE
:1016F000ABAAAAAA00FCFFFF50F50008F0B490F8CE
:101700003440012C38D0012590F83540866DAC422C
:1017100080F8345029D104680227002580F83570FC
:10172000456587682568402F25F48025256063601E
:1017300026D0A160E260C16D3F23026C8B40B36094
:10174000236843F016032360636943F080036361F9
:101750001AB1236843F0080323602268002342F093
:10176000010218462260F0BC70470022022380F874
:1017700034201846F0BC70470223F0BC184670476E
:10178000A260E160D7E700BFF0B5044683B0002057
:101790000822664901900E68D4E916739A403D68A4
:1017A0002A4203D021680868400759D401229A4090
:1017B0002A4203D021684969080674D404229A4059
:1017C0002A4203D021680968890766D410229A400A
:1017D0002A4203D02168086800074BD420229A408F
:1017E0002A4214D021680868C00610D5BA6094F85F
:1017F0003520052A63D00B6813F4802F0B687ED048
:10180000190340F18980E36B0BB120469847636D63
:1018100023B3636DDA071AD522680521444B84F897
:101820003510A3FB0636136823F00103B60A1360D4
:1018300002E01368DB0704D5019B0133B342019337
:10184000F7D90022012384F8342084F83530E36C82
:1018500023B1204603B0BDE8F040184703B0F0BD07
:10186000086820F004000860BA60626D42F001026E
:1018700062659BE7BA600A6812F4802F0A6818D183
:10188000D20503D40A6822F008020A60226C002AFA
:10189000A4D020469047E36DA0E7BA60626D42F0A5
:1018A0000402626592E7BA60626D42F0020262650C
:1018B00084E71103EAD5A26C002AEAD18EE70A6810
:1018C000206C22F016020A604A6922F080024A6106
:1018D00038B30A6822F008020A603F220020012182
:1018E00002FA03F3226DBB6084F8340084F83510EB
:1018F000002AB3D0204603B0BDE8F040104713F4EF
:10190000807380D10A68012022F010020A6084F8F6
:10191000343084F8350076E7636C002B7FF475AFC4
:1019200075E7A26C002AD4D1D7E700BF08000020D9
:10193000B5814E1B2DE9F04F884683B00024D1F8C5
:101940000090DFF8F8E103E00134102C00F0B680DD
:101950000123A34009EA03029342F5D1D8F80450C9
:101960006700032125F0100CB9400CF1FF33C94387
:10197000012B10D88668C5F3001306EA010AD8F8CF
:101980000C60A340BE4046EA0A068660466826EA26
:10199000020633434360C368BCF1020FD8F8086005
:1019A00003EA010306FA07F646EA0306C66015D104
:1019B000E30804F0070C4FF00F0BD8F8106000EBB1
:1019C00083034FEA8C0CD3F820A00BFA0CFB06FA29
:1019D0000CF62AEA0B0A46EA0A061E62066805F0B9
:1019E00003033140BB40EF0043EA01030360ABD582
:1019F000484B24F003064FF00F0C5F6C194606F1BC
:101A0000804604F0030347F4804706F59C369B00AC
:101A10004F644F6C0CFA03F107F480470197019F64
:101A2000B76827EA01013C4FB84220D007F580672C
:101A3000B84246D0394FB84248D0394FB8424AD060
:101A4000384FB8424CD0384FB84253D0374FB842D5
:101A500055D0374FB84248D0364FB84254D0364FA1
:101A6000B8420CBF09270A2707FA03F31943B160EC
:101A7000D143DEF80030EE0304F1010454BF0B4003
:101A80001343AF03CEF80030DEF8043054BF0B40F0
:101A90001343EE02CEF80430DEF8083054BF0B409A
:101AA0001343AD02CEF80830DEF80C3054BF0B40C3
:101AB0001343102CCEF80C307FF44AAF03B0BDE8CE
:101AC000F08F012707FA03F31943D0E7022707FA3B
:101AD00003F31943CBE7032707FA03F31943C6E7D8
:101AE000042707FA03F31943C1E7072707FA03F3AB
:101AF0001943BCE7052707FA03F31943B7E706279D
:101B000007FA03F31943B2E7082707FA03F3194367
:101B1000ADE700BF0038024000000240000802406C
:101B2000000C024000100240001402400018024065
:101B3000001C02400020024000240240003C014002
:101B400002B909048161704770B504460D46164616
:101B50006A1C23682CD19A69900727D49A69D10608
:101B6000F9D59A699106FCD520221021D961DA6154
:101B70009A69900701D500229A629A69D10703D425
:101B80009A6942F001029A615A6800211B4E202591
:101B9000012032405A60636C84F8401043F0040323
:101BA000636484F8415084F8421070BD002070BD19
:101BB0009A699207FAD49A69D0061BD4FFF702FA01
:101BC000801BA84201D8002DC2D1636C20210022C5
:101BD00001200B4384F84020636484F8411084F8AA
:101BE000422070BDFFF7EEF9801B8542EDD3002D3A
:101BF000EBD023689A699206F4D5B5E700E800FEB9
:101C000070B504460D46164623689A69920649D473
:101C10009A69D20626D5681C38D19A699106FCD5F6
:101C200020221021D961DA619A69900701D500223A
:101C30009A629A69D10703D49A6942F001029A61C3
:101C40005A680021184E2025012032405A60636CEA
:101C500084F8401043F00403636484F8415084F82E
:101C6000421070BDFFF7AEF9801BA84201D8002DCD
:101C7000CAD1636C2021002201200B4384F840204C
:101C8000636484F8411084F8422070BD9A6992061A
:101C9000C6D4FFF797F9801B8542EAD3002DE8D020
:101CA0002368B8E7002070BD00E800FE00284DD092
:101CB000F8B590F84130044603F0FF02002B40D005
:101CC0002421E568D4E9003284F84110012D186818
:101CD00022F07061A26820F0010018601961996813
:101CE00021F40041996028D042F40442022D9A6008
:101CF00002D14FF400625A605A680021144820272C
:101D0000A6691043D4E9042558602A43D868E569D8
:101D100042EA0622266A20F400403543D86008468D
:101D2000DA601D601A6842F001021A60616484F88A
:101D30004170216384F84210F8BD42F400429A6079
:101D4000DAE780F8402002F021FDB9E70120704772
:101D5000008000022DE9F84390F84140089E202CB5
:101D60006FD190F84040012C6BD0984601239146EA
:101D70000F4680F840300446FFF724F9054604E09A
:101D8000FFF720F9401B192875D82368986910F4CB
:101D90000040F5D110222121C4F82490C7F309078F
:101DA00084F8411084F842206064A4F82A80628D8F
:101DB0006063FF2A48D8618D484A89B258683A431F
:101DC000DFF824E15FFA81FC218500EA0E0142EA96
:101DD0000C420A435A60DFF81481DFF8149147EA95
:101DE0000808638D2A46314620469BB2002B62D0FC
:101DF000FFF7AAFE00285BD1606A216810F8012B6A
:101E0000238D8A62628D013B6062013A9BB292B27D
:101E100023856285628D92B2002AE2D0002BE0D148
:101E2000701C1DD18B691A06FCD5638DFF2B30D930
:101E30004B68FF2203EA0903228543EA08034B604B
:101E4000CFE70220BDE8F8835A68FF20DFF898C08A
:101E5000234902EA0C02208539430A435A60BAE753
:101E60008B691B06E1D4FFF7ADF8401B864202D315
:101E70000EB12168D4E7636C2021002201200B43BE
:101E800084F84020636484F8411084F84220BDE85F
:101E9000F883628D47F00073486892B200EA090047
:101EA0005FFA82FC228543EA0C4303434B6098E7C8
:101EB0000120BDE8F883FFF7A3FE0028F8D12368CE
:101EC0002021084DD9615A682A405A6084F841108F
:101ED00084F8400084F84200B4E700BF002000828C
:101EE0000020FF8100E800FE009800FC0000FF01D8
:101EF000009C00FC90F84130DBB2202B70B41FD165
:101F000090F84020012A1BD002682424002680F883
:101F100041401568344625F001051560156825F423
:101F200080551560156829431160116841F0010161
:101F3000116080F8406080F84130204670BC7047E6
:101F40000224204670BC704790F84130DBB2202B51
:101F500070B41ED190F84020012A1AD002682424BF
:101F6000002680F841401468354624F001041460CE
:101F7000146824F4706444EA01211160116841F08E
:101F80000101116080F8406080F84130284670BC43
:101F900070470225284670BC704700BF024A13688C
:101FA00043F4807313607047007000401B4A1C4B61
:101FB000116C41F0805130B5116483B0126C1C4635
:101FC00002F080520192019A1A6842F480321A603B
:101FD000FEF7F8FF054605E0FEF7F4FF401BB0F5FD
:101FE0007A7F17D86368DA03F6D523680C4D43F47B
:101FF00000332360FEF7E6FF044605E0FEF7E2FF4C
:10200000001BB0F57A7F05D86B689B03F6D50020DE
:1020100003B030BD032003B030BD00BF0038024024
:1020200000700040002800F04C8103682DE9F04169
:10203000DD0782B0044635D5AC498A6802F00C024F
:10204000042A00F0FF808A6802F00C02082A00F0DF
:10205000F5806368B3F5803F10D0002B00F01A8143
:10206000B3F5A02FA14B1A6800F0648122F48032EE
:102070001A601A6822F480221A6004E09B4A1368EE
:1020800043F480331360FEF79DFF984D064605E04C
:10209000FEF798FF801B642800F2EF802B689A03FC
:1020A000F6D523689F0742D41A0717D56369002B1A
:1020B00000F0B1808D4B5A6F1D4642F001025A6705
:1020C000FEF780FF064605E0FEF77CFF801B022836
:1020D00000F2D3806B6F9B07F6D523685D076BD545
:1020E000824B1A6CD00000F1EE801A6C012542F090
:1020F00080521A641B6C03F080530193019B7C4B4C
:102100001A68D10540F1A880A368012B39D0002BB3
:1021100000F0DB80052B754B1A6F00F0138122F065
:1021200001021A671A6F22F004021A672EE06F4A42
:10213000916811F00C0F63D0916801F00C0108292F
:102140005BD0E368002B00F0E180684B1A681D4605
:1021500042F001021A60FEF735FF064605E0FEF781
:1021600031FF801B022800F288802B689807F6D583
:102170002B68226923F0F80343EAC2032B6023682B
:1021800092E75A4A136F43F001031367FEF71AFFF1
:10219000564E804641F2883705E0FEF713FFA0EB6C
:1021A0000800B84269D8336F9B07F6D525B14F4A6E
:1021B000136C23F080531364A069D0B14B4B9A6821
:1021C00002F00C02082A00F0C58002281A6800F00C
:1021D000EB8022F080721C461A60FEF7F3FE054683
:1021E00004E0FEF7EFFE401B022846D823689B015F
:1021F000F7D4002002B0BDE8F08152685602A0D4A6
:102200003A4A126895073CD5E268012A39D0012084
:1022100002B0BDE8F081354B5A6F1D4622F0010235
:102220005A67FEF7CFFE064604E0FEF7CBFE801BA2
:10223000022822D86B6F9F07F7D44EE74A685002F6
:102240007FF507AF294A126891037FF52BAF6268CB
:10225000002A7FF427AFDAE71A681E4642F480723C
:102260001A60FEF7AFFE07463368DA053FF54CAF5C
:10227000FEF7A8FEC01B6428F6D9032002B0BDE813
:10228000F0811A4920690A6822F0F80242EAC00285
:102290000A6009E7154B1A681D4622F480321A605D
:1022A0001A6822F480221A60FEF78CFE064604E0CB
:1022B000FEF788FE801B6428DFD82B689B03F7D4C9
:1022C000EFE601207047002519E7084B41F28838F6
:1022D0001A6F1E4622F001021A671A6F22F00402DA
:1022E0001A67FEF76FFE074609E000BF003802409C
:1022F00000700040FEF766FEC01B4045BDD8336F3E
:102300009807F7D4002D3FF457AF50E7414B1A68B8
:102310001D4622F001021A60FEF754FE064604E054
:10232000FEF750FE801B0228A7D82B689907F7D428
:102330002368B9E642F480221A601A6842F48032B7
:102340001A60A0E642F004021A671A6F42F0010216
:102350001A671BE701285A683FF45AAF02F480035A
:10236000E1698B427FF453AF02F03F03216A8B4255
:102370007FF44DAF47F6C073616A1340B3EB811F22
:102380007FF445AFA36A02F440315B08013BB1EB37
:10239000034F7FF43CAFE36A02F07062B2EB036F6D
:1023A00014BF0120002033E722F080721D461A601E
:1023B000FEF708FE064605E0FEF704FE801B022835
:1023C0003FF65BAF2B689901F6D4D4E90732606A17
:1023D0001343D4E90A2143F000530E4C520843EA58
:1023E0008013013A43EA016343EA02436B602B68BE
:1023F00043F080732B60FEF7E5FD054605E0FEF730
:10240000E1FD401B02283FF638AF23689A01F6D55C
:10241000EFE600BF0038024078B15E4A136803F06F
:102420000F038B420BD2136823F00F030B4313608F
:10243000136803F00F038B4201D00120704703683B
:102440002DE9F0419D0714D55C0704D5524CA268D4
:1024500042F4E052A2601A0704D54F4CA26842F43D
:102460006042A2604C4C8568A26822F0F0022A43C8
:10247000A260DF0704460D4621D54268464B012A7B
:102480001B6863D0022A79D0990728D5424941F2C6
:1024900088388B680E4623F0030313438B60FEF7E6
:1024A00091FD074604E0FEF78DFDC01B404563D853
:1024B000B368626803F00C03B3EB820FF3D1354AC3
:1024C000136803F00F03AB420CD9136823F00F031A
:1024D0002B431360136803F00F03AB4202D00120BB
:1024E000BDE8F08123685A0706D52B49E0688A6861
:1024F00022F4E05202438A601B0707D5264A21696D
:10250000936823F4604343EAC103936022498B68D4
:1025100003F00C03042B1CD0082B2BD14A684B680A
:1025200002F03F02496813F480032AD11B48C1F32B
:102530008811A1FB0001FEF789FB174B5B68C3F311
:10254000014301335B00B0FBF3F303E09E039DD432
:10255000C5E7134B104A134C92681348C2F3031299
:1025600012490068A25CD3400B60FEF7EFFC00202C
:10257000BDE8F081094BEDE70320B1E7980185D470
:10258000ADE70748C1F388110023A1FB0001FEF766
:102590005DFBD2E7003C0240003802400024F4001A
:1025A00040787D01A0F6000804000020080000200B
:1025B00003682DE9F04313F0010683B004460BD005
:1025C000B64A916821F400019160466B91683143ED
:1025D000B6FA86F67609916013F4002510D0AF495B
:1025E000E56BD1F88C20B5F5801F22F4401242EA49
:1025F0000502C1F88C2000F01A82B5FA85F56D0944
:10260000D90210D5A548216CD0F88C20B1F5800FE7
:1026100022F4400242EA0102C0F88C2000F00A8253
:10262000002908BF012513F0807F18BF01269A06F4
:1026300000F1B781D9060CD5984AD2F88C1021F058
:102640008071C2F88C10D2F88C10A06B0143C2F8D4
:102650008C105A0408D59149606ED1F8902022F46C
:1026600040320243C1F890201F0408D58B49A06E68
:10267000D1F8902022F440220243C1F89020D803E0
:1026800008D58649E06ED1F8902022F4401202432A
:10269000C1F89020990308D58049206FD1F8902087
:1026A00022F440020243C1F890205A0608D57B4923
:1026B000606CD1F8902022F003020243C1F8902010
:1026C0001F0608D57549A06CD1F8902022F00C02A5
:1026D0000243C1F89020D80508D57049E06CD1F8C4
:1026E000902022F030020243C1F89020990508D5CD
:1026F0006A49206DD1F8902022F0C0020243C1F84F
:1027000090205A0508D56549606DD1F8902022F4D3
:1027100040720243C1F890201F0508D55F49A06DA3
:10272000D1F8902022F440620243C1F89020D804EE
:1027300008D55A49E06DD1F8902022F44052024366
:10274000C1F89020990408D55449206ED1F8902002
:1027500022F440420243C1F890205A0208D54F4962
:10276000A06FD1F8902022F080620243C1F890203F
:102770009F020CD54949E06FD1F89020B0F1006F6D
:1027800022F0006208BF01250243C1F8902013F037
:10279000080F18BF0125580308D54049606FD1F8CC
:1027A000902022F040720243C1F89020190200F1FB
:1027B000ED80012E01D09A0160D5384B1A681E4673
:1027C00022F080621A60FEF7FDFB074605E0FEF787
:1027D000F9FBC01B642800F2D58033681B01F6D4D6
:1027E0002368DF0712D5626B82B9D6F88420D6F849
:1027F000847002F44032606807F07067A1683A4361
:1028000042EA801242EA0172C6F884201E0304D50F
:10281000E26BB2F5801F00F01E81D80204D5226C55
:10282000B2F5800F00F01781D90111D51B4E6068F9
:10283000D6F88420D6F8847002F07062216907F01F
:10284000E0473A4342EA801242EA0142C6F8842055
:102850009A0100F1F180114B1A681E4642F0806225
:102860001A60FEF7AFFB074605E0FEF7ABFBC01BA7
:10287000642800F2878033681B01F6D5012D03D050
:10288000002003B0BDE8F083044B1A681D4622F017
:1028900080521A60FEF796FB064606E000380240BA
:1028A000FEF790FB801B64286CD82B689F00F7D440
:1028B00023681D0301D5E26B1AB1D8021DD5226C25
:1028C000DAB982496569D1F88820D1F8886002F4C4
:1028D0004032A06906F0E046324342EA851242EAFD
:1028E0000062C1F88820D1F88C20A06A22F4F85246
:1028F000013842EA0022C1F88C20990215D5E26F16
:10290000B2F1006F11D171496569D1F88820D1F811
:10291000886002F07062206A06F0E046324342EAC4
:10292000851242EA0042C1F888201A0719D5674A81
:102930006569D2F88810D2F8883001F07061E069DA
:1029400003F440330B4343EA851343EA0073C2F8B0
:102950008830D2F88C30E16A23F440330B43C2F85C
:102960008C305A4B1A681C4642F080521A60FEF7AF
:1029700029FB054623689B0082D4FEF723FB401BFE
:102980006428F7D9032003B0BDE8F0834F49D4F899
:102990008000D1F8902022F080520243C1F89020AC
:1029A00007E74A4A4A4B116C1F4641F080511164B7
:1029B000126C02F080520192019A1A6842F48072FD
:1029C0001A60FEF7FFFA804605E0FEF7FBFAA0EB7F
:1029D00008006428D6D83B68DB05F6D53B4A236B54
:1029E000116F03F4407011F4407110D081420ED089
:1029F000116F176F21F4407147F480371767176F15
:102A000027F4803717671167116FCF0748D4B0F5E7
:102A1000407F3CD02D498A6822F4F8128A602B4A04
:102A2000C3F30B03116F0B431367236802E6002502
:102A30000126E5E50126F6E5236962681B04D4E971
:102A4000021043EA8213214A43EA006343EA017316
:102A5000C2F88430FFE61D4E6068D6F88420D6F8B0
:102A6000847002F44032E16807F0E0473A4342EAFA
:102A7000801242EA0162C6F88420D6F88C10626A9D
:102A800021F01F01013A0A43C6F88C20CCE60F481A
:102A900010498268194022F4F8120A438260BEE7A6
:102AA000174641F28838FEF78DFA814606E0FEF7B8
:102AB00089FAA0EB090040453FF664AF3B6F9807E9
:102AC000F5D5236B03F44070A1E700BF0038024046
:102AD00000700040FFFCFF0F002866D0F8B5437F70
:102AE000044603F0FF02002B43D023685322022048
:102AF000CA21607759625A62DA68550627D5986804
:102B0000256962682A492A43014060699960024345
:102B10009D68D4E902102A439A6018611A6942EA52
:102B200001421A61DA6822F08002DA609A6891063E
:102B300023D5D96CFF26A769012521F008010020C3
:102B4000D964DA6C3A43DA645E626577F8BD4FF0B7
:102B5000FF32DA60FEF736FA054605E0FEF732FA94
:102B6000401BB0F57A7F19D82368DA685006F5D58E
:102B7000C5E7027701F042FEB7E7DA6822F0A0026B
:102B8000DA60FEF71FFA05462368DA689206D0D4A9
:102B9000FEF718FA401BB0F57A7FF5D92268FF21BD
:102BA0000423012051626377F8BD0120704700BF04
:102BB000BFFF8FFF2DE9F843037F012B00F08C80CE
:102BC0000D46022301210668437704460177B76862
:102BD000002A30D017F040077AD02F7B3F04687866
:102BE0002A780002AB7840EA024018430743CA2221
:102BF000532372627362F3685A064DD5464A2B69B5
:102C00003A40696932600B43B26822F48022B260B4
:102C1000B2681343B360F36823F08003F360B368D2
:102C20009B065CD50023FF21012218467162627762
:102C30002377BDE8F88317F040074BD02F7B3F0484
:102C40002B780021092B06D90A3B0131DBB2092B75
:102C5000FAD80901C9B219436B780020092B4FEA51
:102C6000014106D90A3B0130DBB2092BFAD8000139
:102C7000C0B20343A87809284FEA032349D90A3888
:102C80000132C0B20928FAD81201D2B20F43104360
:102C90003B4343EA0007AAE74FF0FF33F360FEF738
:102CA00091F981462668F36813F04008A6D1FEF733
:102CB00089F9A0EB0900B0F57A7FF3D92268FF21EA
:102CC00004230120516284F81C806377BDE8F883F7
:102CD0002F7384E72F73B3E70220BDE8F883F3680E
:102CE00023F0A003F360FEF76DF907462668F56848
:102CF00015F0200596D1FEF765F9C01BB0F57A7F77
:102D0000F4D92268FF2104230120516225776377DB
:102D10008FE70022BAE700BF7F7F7F0070B40468AE
:102D2000184BA56A20692468C0F30E004D6023404B
:102D30008860180CC3F30624DBB200F0400600F0F4
:102D40003F054C700E730D708B70BAB9260900F0F8
:102D50000F001A0904F00F042D0903F00F0306EB0E
:102D6000860605EB850502EB820200EB450004EBCD
:102D7000460403EB420308704C708B70002070BC5B
:102D8000704700BF7F7F7F00F8B5037F012B74D0B1
:102D90000546022301206B7728770E78CB787603DF
:102DA00048788C788ABBC70604D520F010000A301A
:102DB000C0B24870092B4FF0000106D90A3B01311F
:102DC000DBB2092BFAD80901C9B20B4309284FF02D
:102DD00000014FEA034306D90A380131C0B209287D
:102DE000FAD80901C9B20843092C4FEA002160D979
:102DF0000A3C0132E4B2092CFAD81201D0B21E43C7
:102E0000044346EA0100044304E046EA03431C434A
:102E100044EA00242B68CA21532259625A62DA68B4
:102E2000510611D5244A22405A60DA6822F0800205
:102E3000DA609A68920622D50022FF2001215862AA
:102E4000104669772A77F8BD4FF0FF32DA60FEF757
:102E5000B9F806462B68DF6817F04007E2D1FEF7A5
:102E6000B1F8801BB0F57A7FF4D92A68FF210423DA
:102E7000012051622F776B77F8BD0220F8BDDA6828
:102E800022F0A002DA60FEF79DF806462B68DC68A7
:102E900014F02004D0D1FEF795F8801BB0F57A7FAE
:102EA000F4D92A68FF210423012051622C776B7723
:102EB000F8BD0020A3E700BF3FFFFF000068164BEE
:102EC00040680340F0B4C3F30724C3F34236180C40
:102ED00004F01F05DBB20E704D70C8708B70BAB96C
:102EE0002D0903F00F06020904F00F04AF0000F0F3
:102EF0000F001B093D4402EB820203EB830304EB4A
:102F0000450400EB420006EB43034C70C8708B7025
:102F10000020F0BC704700BF3FFFFF00374B00228E
:102F20004FF478412DE9F0431D6B8BB0344C1646BD
:102F300045F48055DFF8CC902046DFF8CC801D6347
:102F400001271D6B05F480550195019D1D6B45F012
:102F500010051D631D6B05F010050295029D1D6B8C
:102F600045F020051D631D6B05F020050395039DAD
:102F70001D6B45F040051D6303251B6B03F04003EB
:102F80000493049BFEF7DCFD48463246FF21FEF722
:102F9000D7FD324640464FF47F41FEF7D1FD4FF456
:102FA0007843204605A9CDE90537CDE90765FEF749
:102FB000C1FCFF23484605A908950593CDE906768F
:102FC000FEF7B8FC4FF47F4305A9404608954FF43F
:102FD00000550593CDE90676FEF7ACFC4FF4006092
:102FE0004FF480514FF400424FF48043A561A0613B
:102FF000A161A261A3610BB0BDE8F083003802407B
:10300000001402400018024000100240C34311495E
:10301000114A1B0470B44FF07F45C4B203F47F0320
:1030200000F47F408D614FF0005523430B4C9561B8
:103030004FF0004595614FF00065A3614FF40064C7
:103040004E694FF400533043486195619461936138
:1030500070BC70470010024000140240001802408B
:10306000C3431149114A1B0470B44FF07F45C4B2E9
:1030700003F47F0300F47F408D614FF0005523433C
:103080000B4C95614FF4004595614FF00065A361CD
:103090004FF400644E694FF400533043486195612A
:1030A0009461936170BC70470010024000140240AC
:1030B0000018024099B300EB41014FF0006C2DE97C
:1030C000F04F174D4FF07F4A164C4FF000594FF418
:1030D0000048DFF854E04FF400674FF4005630F832
:1030E000023BC5F818A0DA435FFA83FBC4F81890D6
:1030F00003F47F431204C4F81880884202F47F026C
:1031000042EA0B02CEF818206A6943EA02036B61B7
:10311000C4F818C0A761A661E1D1BDE8F08F70477F
:103120000010024000140240001802402DE9F04F48
:103130004FF08043BD4C83B04FF4FA70A3614FF45D
:103140008046FDF745FF4FF000524FF000636420CA
:1031500001924FF0004A00934FF40067A6614FF4CC
:103160000056B34DFDF734FF4FF07F43DFF8D482B4
:10317000019A0A20AB614FF40049AE4BA261019263
:10318000C4F818A0C8F81830009BD5F814C0DFF8B0
:10319000B8B2C5F814C0A3610093A761A661FDF79A
:1031A00017FF019ADFF8A4E24FF07F434FF07F4111
:1031B000DFF89CC2AB616420A261009BC4F818A038
:1031C000C8F818E0D5F814E0C5F814E0A361A761C9
:1031D000A661A961A261C4F81890C8F818C0D5F812
:1031E00014C0C5F814C0A361A761A661A961A2615A
:1031F000C4F81890C8F818B0D5F814C0C5F814C0B1
:10320000A361A761A661A9618B49A261C4F8189066
:10321000C8F818104FF07F41D5F814C0C5F814C095
:10322000A361A761A661A9618449A261C4F818A03D
:10323000C8F818104FF07F41D5F814C0C5F814C075
:10324000A361A761A661A961A2610192794AC4F84C
:103250001890C8F81820D5F814C0C5F814C0A36198
:103260000093A761A661FDF7B3FE4FF07F43019A7B
:103270004FF07F41AB610A20704BA261C4F818A0E7
:10328000C8F81830009BD5F814C0C5F814C0A36165
:10329000A761A661A9616A49A261DFF8B8C1C4F853
:1032A0001890C8F818104FF07F41D5F814E0C5F811
:1032B00014E0A361A761A661A961A261C4F818A086
:1032C000C8F818C0DFF890C1D5F814E0C5F814E0CC
:1032D000A361A761A661A961A261C4F81890C8F8AA
:1032E00018C0D5F814C0C5F814C04FF47F0CA36102
:1032F000A761A661A9614FF07F41A261C4F818904F
:10330000C8F818C0D5F814C0C5F814C0A361A761E7
:10331000A661A9614749A261DFF840C1C4F81890CD
:10332000C8F818104FF07F41D5F814E0C5F814E044
:10333000A361A761A661A961A261C4F81890C8F849
:1033400018C0D5F814C0C5F814C0A361A761A66160
:10335000A9613849A261DFF808C1C4F81890C8F81B
:1033600018104FF07F41D5F814E0C5F814E0A361C0
:10337000A761A661A961A261C4F81890C8F818C035
:10338000D5F814C0C5F814C04FF47F0CA361A76131
:10339000A661A9614FF07F41A261C4F81890C8F8F6
:1033A00018C0DFF8C0C0D5F814E0C5F814E0A36178
:1033B000A761A661A961A261C4F818A0C8F818C0E5
:1033C000D5F814C0C5F814C0A361A761A661A961AE
:1033D0001B49A261DFF890C0C4F81890C8F8181013
:1033E0004FF07F41D5F814E0C5F814E0A361A76160
:1033F000A661A961A261C4F818A0C8F818C0D5F8E0
:1034000014E0DFF868C0C5F814E0A361A761A66105
:10341000A9610849A261C4F81890C8F818104FF0C3
:103420007F41D5F814E0C5F814E021E00014024013
:10343000001002400100FE000400FB00E0001F003D
:103440000300FC00001802400200FD00E2001D0025
:103450001D00E200B0004F002000DF00DF00200070
:103460000F00F000F0000F00E600190075008A0060
:10347000A361A761A661A961A261C4F81890C8F808
:1034800018C0D5F814E0DFF844C3C5F814E0A36110
:10349000A761A661A961A261C4F81890C8F818C014
:1034A000DFF82CC3D5F814E0C5F814E0A361A761D8
:1034B000A661A961A261C4F818A0C8F818C0D5F81F
:1034C00014E0DFF810C3C5F814E0A361A761A6619A
:1034D000A961A261C4F81890C8F818B0D5F814E032
:1034E000C5F814E0A361A761A661A961A261C4F84F
:1034F0001890C8F818C0D5F814E0DFF8DCC2C5F899
:1035000014E04FF47F0EA361A761A661A9614FF09B
:103510007F41A261C4F81890C8F818E0D5F814E00B
:10352000C5F814E0A361A761A661A961A261C4F80E
:103530001890C8F818C0D5F814E0DFF8A0C2C5F894
:1035400014E0A361A761A661A961A261C4F8189003
:10355000C8F818B0D5F814B0DFF884E2C5F814B094
:103560004FF47F0BA361A761A661A9614FF07F4172
:10357000A261C4F81890C8F818B0D5F814B0C5F80E
:1035800014B04FF47F0BA361A761A661A9614FF04E
:103590007F41A261C4F81890C8F818B0D5F814B0EB
:1035A000C5F814B04FF47F0BA361A761A661A961B0
:1035B0004FF07F41A261C4F81890C8F818B0D5F850
:1035C00014B0C5F814B0A361A761A661A961A26196
:1035D000C4F818A0C8F818C0D5F814B0DFF804C2B1
:1035E000C5F814B0A361A761A661A9617349A2617E
:1035F000C4F81890C8F818104FF07F41D5F814B0EF
:10360000C5F814B0A361A761A661A961A261C4F85D
:103610001890C8F818E0D5F814B0DFF8CCE1C5F878
:1036200014B04FF47F0BA361A761A661A9614FF0AD
:103630007F41A261C4F81890C8F818B0D5F814B04A
:10364000C5F814B0A361A761A661A961A261C4F81D
:103650001890C8F818C0D5F814B0DFF890C1C5F8B4
:1036600014B0A361A761A661A961A261C4F8189012
:10367000C8F818E0D5F814E0C5F814E04FF47F0E50
:10368000A361A761A661A9614FF07F41A261C4F85F
:103690001890C8F818E0D5F814E0C5F814E04FF415
:1036A0007F0EA361A761A661A9614FF07F41A2616E
:1036B000C4F81890C8F818E0D5F814E0C5F814E07C
:1036C000A361A761A661A961A2610192C4F818A0D3
:1036D000C8F818C0D5F814C0C5F814C0A361009389
:1036E000A761A661FDF774FC019A35484FF07F434E
:1036F0004FF07F41DFF8F8C0AB61A261C4F818A0B9
:10370000C8F818006869009B68612E48A361A7612A
:10371000A661A961A261C4F81890C8F81800D5F88C
:1037200014E02948C5F814E0A361A761A661A96166
:10373000A261C4F81890C8F818C0D5F814C0C5F82C
:1037400014C0A361A761A661A9611C49A261C4F864
:103750001890C8F818104FF07F41D5F814C0C5F87C
:1037600014C0A361A761A661A961A261C4F8189001
:10377000C8F8180068696861A361A761A661A961BA
:103780004FF47F01A261C4F81890C8F818104FF0E8
:103790007F4168696861A361A761A661A961A261AF
:1037A0004FF47F02C4F81890C8F818206A696A615B
:1037B000A361A761A66103B0BDE8F08F0100FE0020
:1037C000BE0041000400FB004000BF00ED001200FD
:1037D000B4004B001400EB002C00D300B6004900ED
:1037E0001E00E1000C00F3000600F9002900D600DD
:1037F000C0003F0084B008B50DF1080C8CE80F0044
:103800004C22614603480AF08BF9BDE8084004B039
:10381000704700BFCC92012070B584B040F2032302
:103820004FF44056814D04AC24F8043D0096022329
:10383000224688212846FEF78DFA0028F6D10A2074
:103840004FF44056FDF7C4FB784D40F20443ADF809
:103850000C3000960223224688212846FEF77AFA89
:103860000028F6D140F20A334FF440566F4DADF8C0
:103870000C3000960223224688212846FEF76AFA79
:103880000028F6D144F620034FF44056674DADF8BA
:103890000C3000960223224688212846FEF75AFA69
:1038A0000028F6D102204FF44056FDF791FB5F4D02
:1038B00040F22113ADF80C300096022322468821F5
:1038C0002846FEF747FA0028F6D117234FF4405652
:1038D000564DADF80C30009602232246882128462A
:1038E000FEF738FA0028F6D14AF241334FF4405639
:1038F0004E4DADF80C300096022322468821284612
:10390000FEF728FA0028F6D14FF4A5734FF440567D
:10391000464DADF80C3000960223224688212846F9
:10392000FEF718FA0028F6D140F24B134FF4405638
:103930003E4DADF80C3000960223224688212846E1
:10394000FEF708FA0028F6D14B234FF44056374DC6
:10395000ADF80C3000960223224688212846FEF757
:10396000F9F90028F6D140F256734FF440562F4D26
:10397000ADF80C3000960223224688212846FEF737
:10398000E9F90028F6D14FF4AC734FF44056274DB7
:10399000ADF80C3000960223224688212846FEF717
:1039A000D9F90028F6D14FF441534FF440561F4D3A
:1039B000ADF80C3000960223224688212846FEF7F7
:1039C000C9F90028F6D14FF445534FF44056174D2E
:1039D000ADF80C3000960223224688212846FEF7D7
:1039E000B9F90028F6D14FF60B734FF440560F4D3E
:1039F000ADF80C3000960223224688212846FEF7B7
:103A0000A9F90028F6D140F209134FF44056074DAA
:103A1000ADF80C3000960223224688212846FEF796
:103A200099F90028F6D104B070BD00BFCC920120F6
:103A300008B505484FF4C83107F04CFB0348BDE812
:103A4000084006F047BC00BFB800002038F7000867
:103A5000014B1868704700BF18930120034A136890
:103A600018441368C31A002BFBDC7047189301201D
:103A7000704700BFF0B50024A3B06822234F214651
:103A800008A80794224ECDE90344CDE905440AF085
:103A90006BF8234622461F491F4806F0B1FB4FF43E
:103AA000887205464FF4F071204604F0D5FB4FF4C0
:103AB000887220464FF4F07104F0B6FB03A9284643
:103AC000059404F050FBDFF85CC008A92846134BAE
:103AD000134A1396CDE910C704F063FB40F67472E5
:103AE00021462046009292234FF4F07205F0F0FB3D
:103AF00040F6037221464FF4877300924FF48872A8
:103B0000012005F0E5FB23B0F0BD00BF61300008E7
:103B1000B5300008302E0108A42C01086D7B000888
:103B2000D17400080D300008012906D108B5FFF74F
:103B3000FDFAFFF771FE002008BD4FF0FF3070471F
:103B4000024A136801331360704700BF18930120C5
:103B50000268044B9A4203D1034A044B12681A606C
:103B6000704700BF00220140409401203C94012096
:103B700070B50024B4B030220926214607A809F008
:103B8000F3FF2146842213A806940225CDE90244BE
:103B9000CDE9044409F0E8FFFEF700FA224A234B7E
:103BA00007A8116C41F0805111644FF48031126C00
:103BB00002F080520092009A1A6842F440421A6061
:103BC00001221B6807964FF4800603F440430891D6
:103BD0000C92192101934FF4C072019B082310929B
:103BE00012930D951195CDE90E61FEF71BFA0F2684
:103BF000FEF7DCF94FF4A0524FF48053062102A8DF
:103C00000296CDE90523CDE90354FEF705FC44F205
:103C100020024FF4007313A82C9413921F93FEF705
:103C2000C7FC34B070BD00BF0038024000700040D7
:103C300000214FF488734FF4F07208462DE9F04FDD
:103C4000DFF84CB385B003F0ADF94FF08808CBF83E
:103C5000000003F0AFF96FF07F404FF0FF0A05F06E
:103C600017FEA24D06F06EFB002005F013FE0020AB
:103C700005F0ECFD052005F073FE82234FF48C70F7
:103C80006FF0590241469A4C9A4E4FF04C099A4FA8
:103C9000CDE900201A46404607F0D4F8082005F088
:103CA0005FFE8723102250464146C5F800A0C4F8A5
:103CB00000803760914FCDE9023205F007FF029B8B
:103CC000039A1946236010462A60376005F0FEFE0D
:103CD000039A00218A48EF27C5F800804FF020089A
:103CE0002260316005F0A8FD22682968053A854800
:103CF00006F058F9029B844A514618462B60326000
:103D0000C4F800A005F0E2FE06204FF0C40A05F05A
:103D100027FE7E4B3846494633602F60C4F800903A
:103D200005F0D4FE7A4B49464046C4F80090336013
:103D3000C5F8008005F0CAFE764B384651462F6024
:103D40003360C4F800A005F0C1FEC323724A4046A8
:103D5000C5F8008019463260236005F0B7FE6F4B4E
:103D600041465046C5F800A03360C4F8008005F015
:103D7000ADFE6B4B50463946C5F800A03360276056
:103D800005F0A4FE4B23674A4146C4F8008018465C
:103D900032602B6005F09AFE634B39464846C5F801
:103DA00000903360276005F091FE604805F044FD07
:103DB000022005F037FD0A224FF4AF715C4806F08F
:103DC000F1F814224FF4AF715A4806F0EBF81E22B6
:103DD0004FF4AF71584806F0E5F828224FF4AF7160
:103DE000564806F0DFF832224FF4AF71544806F01F
:103DF000D9F83C224FF4AF71524806F0D3F846226E
:103E00004FF4AF71504806F0CDF850224FF4AF7127
:103E10004E4806F0C7F85A224FF4AF714C4806F0EE
:103E2000C1F864224FF4AF714A4806F0BBF86E2225
:103E30004FF4AF71484806F0B5F878224FF4AF71EF
:103E4000464806F0AFF882224FF4AF71444806F0BE
:103E5000A9F88C224FF4AF71424806F0A3F89622DD
:103E60004FF4AF71404806F09DF8A0224FF4AF71B7
:103E70003E4806F097F8AA224FF4AF713C4806F08E
:103E800091F8B4224FF4AF713A4806F08BF8BE2295
:103E90004FF4AF71384806F085F8C8224FF4AF717F
:103EA000364806F07FF8D2224FF4AF71344806F05E
:103EB00079F8DC224FF4AF71324806F073F8E6224D
:103EC0004FF4AF71304806F06DF8F0224FF4AF7147
:103ED0002E4806F067F8DBF8000003F0E3F8DBF8A3
:103EE000000005B0BDE8F04F02F0FEBFBC9001201D
:103EF000C0900120B8900120DB0FC93FE4CB964071
:103F0000DC11010874F50008DB0F4940920A863F76
:103F1000368DA740920A0640920A8640920A063FD2
:103F2000368D2740884EB8407F926A40181D0108A0
:103F300078F5000884F5000890F500089CF5000865
:103F4000A8F50008B4F50008C0F50008CCF5000895
:103F5000D8F50008E4F50008F0F50008FCF50008C5
:103F600008F6000814F6000820F600082CF60008F1
:103F700038F6000844F6000850F600085CF6000821
:103F800068F6000874F6000880F600088CF6000851
:103F90006C93012000000000B4232E212DE9F04F86
:103FA0001A460846DFF820834FF0060BDFF81CA303
:103FB000B94DDFF81C93B94EB94F2DED028B89B086
:103FC00002F0F0FFC8F8000002F0F4FF06F0BAF9C2
:103FD000002005F05FFC504605F02EFC022005F0A5
:103FE00021FC50228821AF4805F0DCFF02A92846B9
:103FF0000022FEF793FE02A9002228469DF8084001
:10400000FEF78CFEA84B02A99DF809C02846A3FB29
:10401000042300224FEA6C0CDB0803EB4303A4EB00
:104020008303C3EB03130CEB4304FEF777FE9DF809
:104030000AC09E48A0FB0C3C04EB1C1007EE900A43
:10404000F8EEE77A17EE900AFCF796FA90A3D3E918
:104050000023FCF713FCFCF7A9FDC9F80000FCF7EE
:104060008BFA41EC100B41EC180B0AF0B1FA00226C
:104070008F4B51EC100BFCF7D7FA00228D4BFCF75D
:104080001DF9FCF76BFDB0EE480AF0EE680A3060EF
:104090000AF0D6F90022864B51EC100BFCF7C4FA5B
:1040A00002460B4600208349FCF706F9FCF756FD53
:1040B0003860002005F0EEFB0A2005F051FC882155
:1040C0003B683268084605F04FFF02A928460022E7
:1040D000FEF724FE02A9002228469DF80940FEF7BB
:1040E0001DFE9DF80A00744BA3FB0030C0081BFBAB
:1040F000040007EE900AF8EEE77A17EE900AFCF754
:104100003BFA63A3D3E90023FCF7B8FBFCF74EFDB1
:10411000C9F80000FCF730FA41EC100B41EC180B29
:104120000AF056FA0022654B51EC100BFCF77CFAB2
:104130000022604BFCF7C2F8FCF710FDB0EE480A15
:10414000F0EE680A30600AF07BF900225B4B51EC1C
:10415000100BFCF769FA02460B4600205549FCF7A4
:10416000ABF8FCF7FBFC3860584605F0F9FB8821FA
:104170003B683268084605F0F7FE02A9002228468F
:10418000FEF7CCFD9DF80A0000EB4000400007EE72
:10419000900AF8EEE77A17EE900AFCF7EDF93CA3E7
:1041A000D3E90023FCF76AFBFCF700FDC9F8000027
:1041B000FCF7E2F941EC100B41EC180B0AF008FA9D
:1041C00000223F4B51EC100BFCF72EFA0022394B2A
:1041D000FCF774F8FCF7C2FCB0EE480AF0EE680A8F
:1041E00030600AF02DF90022354B51EC100BFCF732
:1041F0001BFA02460B4600202E49FCF75DF8FCF73F
:10420000ADFC3860FF2005F045FB042005F0A8FB5D
:1042100088213B683268084605F0A6FE002005F0BC
:1042200039FB02A928460022FEF748FE02A92846CB
:1042300000229DF80A40FEF741FE02A9284600220E
:104240009DF80950FEF73AFE9DF80B102B462246CA
:10425000009102A81B4909F08FFC504605F0ECFACA
:10426000022005F0DFFAC822882102A805F09AFE94
:10427000D8F8000002F016FFD8F8000002F034FE73
:1042800009B0BDEC028BBDE8F08F00BFAFF300803A
:1042900072235D1ADCA54C401C940120BC900120C7
:1042A000C090012058F50008ABAAAAAA898888887E
:1042B0000000494000006140CDCCCCCC000054400F
:1042C0000080564060F5000818940120A4050108FC
:1042D000B89001204FF0000A4FF00109DF4EE04C8A
:1042E0002DE98048DFF8ACB3A3B0FCF753FEDD4FF7
:1042F000FFF73EFCCDF878A0CDF87CA05246CDF873
:1043000080A04FF40041D8480DF18808CDE91CAADF
:10431000DBF8303043F00403CBF83030DBF83050BA
:10432000D24B05F004051495149D1D46DBF830C0F2
:1043300011934CF0200CCBF830C0DBF830C00CF0FF
:10434000200CCDF854C0DDF854C0DBF830C04CF080
:10435000800CCBF830C0DBF830C00CF0800CCDF80E
:1043600058C0DDF858C0DBF830C04CF0400CCBF83A
:1043700030C0DBF830C00CF0400CCDF85CC0DDF88C
:104380005CC0DBF830C04CF0020CCBF830C0DBF87E
:1043900030C00CF0020CCDF860C0DDF860C0FDF755
:1043A000CFFB52460821B248FDF7CAFB4FF400424A
:1043B0001CA9AD48CDE91C29CDE91EAAFDF7BAFA22
:1043C00008221CA9AA48CDF87CA01C92CDE91D9A10
:1043D000FDF7B0FA102002221CA91C90A4481D92DF
:1043E0002092CDE91EAAFDF7A5FADBF8300052466F
:1043F000514640F4800C3820CBF830C0DBF830C098
:104400004FF0000B0CF4800CCDF84CC0DDF84CC024
:10441000FDF778F83820FDF7ABF8964A9649304614
:10442000C6F820A0C6E90012C6E902A9C6E904AA96
:10443000C6E906AAFDF73AFC51463046FDF75AFD9B
:1044400051463046FDF780FDDFF84CC24FF4803115
:104450008A4A3846C7F808A0C7F81090C7F81890DD
:1044600087F820A0C7F82CA0C7F80CA0C7F81C90AC
:1044700087F83090C7F814A0BA62C7E900C1CDE947
:104480001CAACDE91EAAFCF7B5FD4FF0060C0722C9
:104490001CA938461E92CDE91CC9FCF75FFF119B91
:1044A000DFF8F8C17F21FF221846C3F804A0C3F843
:1044B00018A0C3F800C0CDF864A0C3E90212C3E994
:1044C00004AACDE91CAACDE91EAACDE920AAFEF7CF
:1044D00003FB119B4FF4B24E4FF0550C4FF0000A06
:1044E0004A461CA91846ADF870E08DF872C0CDE9B7
:1044F00020ABFEF75FFB119B61494A461846DFF887
:10450000A0A148F8241D4146FEF73EFC4A465D49FD
:104510003846FCF725FE6F46FEF700FD06F1100C4D
:10452000DFF88091BCE80F000FC7BCE80F000FC791
:10453000BCE80F000FC79CE8070087E8070096E873
:104540000F00FFF757F90026FFF766F94E4F05F009
:1045500033FFFFF76DFB05E0206802F0A3FD206844
:1045600002F0C2FCFFF718FDFF235022002140F2A9
:10457000771002F017FD206002F01CFD002005F00E
:1045800089F900221CA92846FEF7C8FB9DF8712076
:10459000002AE1D11CA92846FEF7C0FB9DF8722035
:1045A000002AD9D11CA92846FEF7B8FB9DF8703027
:1045B000012B50D0002005F06DF9DAED007AF8EE0D
:1045C000677A17EE900AFBF7D7FF00224FF07D5372
:1045D000FCF72AF800222D4BFBF76EFE3B463246D5
:1045E000FCF722F8FCF7E2FA07EE900A494640464B
:1045F000FDEEE77AF8EEE77AFDEEE77A17EE902A1D
:1046000009F0BAFA224805F017F9022005F00AF974
:1046100000221CA92846FEF781FB9DF870301CA9DA
:104620000022284653B9F0224FF4C371404605F0EA
:10463000B9FC4FF47A7004F036FE8DE7FEF76EFB9E
:104640009DF870204FF4C371404602EB8202520085
:1046500005F0A8FCEDE705F075FEABE71C93012023
:1046600068930120D0930120001802401C9401207F
:10467000000402405D3E3020005400400100000F65
:104680000101012240940120000059400000E03F58
:10469000FC230108003802400022014000280040AD
:1046A0003C94012098F60008704700BF0A4B82B086
:1046B0001A6C42F080521A641A6C02F08052009216
:1046C000009A5A6C42F480425A645B6C03F4804353
:1046D0000193019B02B0704700380240274B0268EB
:1046E000F0B59A4289B04FF00004CDE90344CDE91A
:1046F0000544079401D009B0F0BD03F58B3306469D
:104700004FF4407003255A6C03A94FF4806742F4BC
:1047100080625A645A6C02F480620192019A1A6BA8
:1047200042F020021A631B6B039003F0200314482D
:1047300004950293134D029BFDF7FCF84FF0806047
:10474000DFF844C04FF480514FF480424FF480733F
:10475000AC60EC60C5E900C02846C5E90844C5E97D
:104760000471C5E90623FCF72DFF18B9B563AE63E4
:1047700009B0F0BDFFF798FFF8E700BF0022014045
:10478000001402407093012010640240016800236D
:10479000174A70B5914288B0CDE90333CDE90533AE
:1047A000079301D008B070BD124C12220120C02620
:1047B000236B032503A943F002032363236B0492B5
:1047C000042203F0020305900B480193019B03961A
:1047D000CDE90652FDF7AEF8236C43F400132364D1
:1047E000236C03F400130293029B08B070BD00BF5A
:1047F0000054004000380240000402400268044BAC
:104800009A4204D1034A136F43F40043136770477D
:104810000028004000380240704700BFFEE700BF9C
:10482000FEE700BFFEE700BFFEE700BF704700BF26
:10483000704700BF704700BF08B5FCF7B7FBBDE885
:104840000840FCF7BBBE00BF0148FCF79DBF00BF9E
:10485000709301200C4A08B5136833B118446946B7
:10486000884209D81060184608BD08490B461160F7
:10487000694618448842F5D909F028F90C224FF00E
:10488000FF330260184608BDC4900120D095012076
:10489000034AD2F8883043F47003C2F88830704776
:1048A00000ED00E0DFF834D00D480E490E4A002339
:1048B00002E0D458C4500433C4188C42F9D30B4AD4
:1048C0000B4C002301E013600432A242FBD3FFF73C
:1048D000DFFF09F001F9FFF7FDFC7047000005203C
:1048E000000000209C000020003501089C000020F2
:1048F000D0950120FEE72DE9F04F87B0C4690393FE
:104900008A469346002C6DD0204606F0BDFB816A96
:10491000059001F42073802BB0F8008042888688CF
:10492000C58808D0B3F5207F08D108EB0A091FFA23
:1049300089F9039B08E0039883B201E01FFA8AF328
:1049400003EB08091FFA89F901F4A0613344B1F5BA
:10495000807F9BB208D0B1F5A06F08D102EB0B0CA1
:104960001FFA8CFC109F08E010998FB201E01FFA2B
:104970008BF707EB020C1FFA8CFC0FFA89F90FFA80
:1049800088F812B22F440FFA8CFCB9EB080102929E
:10499000BFB2C2EB0C0200D142B120460193CDF868
:1049A00000C000F06BF9DDF800C0019B1BB2C9EB41
:1049B000030936B2029BC6EB08083FB22DB2CCEB1E
:1049C000070C5D1B19EB08010CEB050200D112B1BD
:1049D000204600F044F806A850F8043D1C6A06F092
:1049E00061FB8FE707B0BDE8F08F37B5054668B1CA
:1049F00006F04AFB02AC44F8040D006804F00AFC1F
:104A0000204606F04FFB284606F06CFB03B030BD95
:104A100073B5054601A804F0C9FB0446DCB1204685
:104A2000012104F02BFC019B83B178B1184606F0FC
:104A300021FB4368AB4209D1204601A9019E04F045
:104A4000CDFB04463046FFF7D0FFE7E7204601A93B
:104A500004F0C4FBE1E702B070BD06F00DBE2DE925
:104A6000F04151EA02038AB080460E4617466ED0E6
:104A700000286CD006F008FB0346039003C804AD81
:104A800006AC85E8030084E803007EB19A6A02F46C
:104A90002072802A05D1BDF81820961BADF8186049
:104AA00004E0BDF81C201644ADF81C6087B19A6A7A
:104AB00002F4A062B2F5807F05D1BDF81A20D71BA1
:104AC000ADF81A7004E0BDF81E201744ADF81E7052
:104AD0009B6ADA0302D5404600F028FC94E8030004
:104AE000039B83E803009B6A9B070AD508A8294615
:104AF000224604F071FF039B08A899691A6A00F026
:104B000019FDBDF91C40BDF91430BDF91E70BDF989
:104B10001600BDF91860BDF91010BDF91A50BDF9A5
:104B20001220E31A381A0AACAA1A0090711A0398D4
:104B3000FFF7E1FE54F81C1D01F1080004F01CF918
:104B40004046052100F00EFD204606F0ABFA0AB003
:104B5000BDE8F0811FB5262303916946009306F056
:104B6000FDFD05B05DF804FB2DE9F04188B0064677
:104B70000C46154604A80021102208F0F5FF36B3B4
:104B8000304606F081FA21462A46019004F014FFCF
:104B90000198214608302A4604F00EFF08A850F874
:104BA0001C2DD2F81C80176A06F07CFA404621467C
:104BB0002A46FFF7D9FF03230493304602AB04A92A
:104BC0000793029403953E4606F06AFDD7E708B0C6
:104BD000BDE8F0812DE9F0438BB006460D46144642
:104BE00006A80021102208F0BFFF002E43D00DB907
:104BF000002C40D0304606F047FA0346019003C827
:104C00000DF1080888E8030022461846294604F0FA
:104C1000D3FE01980AAF29462246083004F0CCFEA4
:104C200057F8243DD3F81C90384606F03BFA22464C
:104C300048462946FFF798FF304606F025FA826A73
:104C4000019092070AD5816941B1026A00F05DFCCA
:104C5000019B404699691A6A00F057FC384606F0F5
:104C600021FA03230693304604AB06A90993049561
:104C7000059406F015FD0BB0BDE8F083FFF7AABF61
:104C800008B5034610B106F0F5F98369184608BD6A
:104C900008B5034610B106F0EDF9C369184608BD22
:104CA000034B1B685A7C034B53F82200704700BF2C
:104CB000240000204C94012037B50D4658B151B165
:104CC00006F0E2F902AC294644F8040D00F055FC68
:104CD000204606F0E7F903B030BD00000A4A0B4950
:104CE000002313700A4A0B6013600A4A4B6013607A
:104CF000094A13605360094A1360094A1360094A5C
:104D00001360094A13607047F09001205C94012001
:104D1000C89001208094012088940120949401205F
:104D200048940120749401208494012010B5044615
:104D300006F0A0F9836A044A13F4803F034B20462F
:104D400008BF1346984710BD895B000859610008E9
:104D5000F0B5054685B00C461646002D4CD02846C9
:104D600006F092F9876A0190BB0701463DD502AD76
:104D700026B12846324603F0CDFF02E003C885E89D
:104D800003002046294604F0CDFD70B317F0010F53
:104D9000019B1ED13EB1B3F90220B6F902309A420E
:104DA000A8BF134601E0B3F90230B4F902209342E0
:104DB000B4F9062006DDBDF80A3019B28A4214DBC8
:104DC000013B04E0BDF80E3019B28A420DDDE380EC
:104DD0000BE0DF694FB1384621462A46FFF7B8FF9E
:104DE000384606F047F9076AF4E704A850F80C3D86
:104DF0001D6A06F057F9B0E705B0F0BD2DE9FF4197
:104E000004460F4690460025002C37D0204606F079
:104E10003BF9866A0190B207014628D502ACB8F189
:104E2000000F04D02046424603F074FF02E003C89E
:104E300084E803003846214604F074FDB8B1F30756
:104E400005D4BDF80C3001333B8001250FE0019BF8
:104E5000DE6966B1304639462246FFF7CFFF0028AB
:104E6000304618BF012506F005F9066AF1E704A8E7
:104E700050F80C3D1C6A06F015F9C5E7284604B049
:104E8000BDE8F081F0B5044685B00E461746002C0B
:104E900031D0204606F0F8F8856A0190AA0701464D
:104EA00022D502AC27B120463A4603F033FF02E098
:104EB00003C884E803003046214604F033FD98B16E
:104EC000EB0704D4BDF80830013BB3800CE0019B34
:104ED000DD694DB1284631462246FFF7D3FF28460B
:104EE00006F0C8F8056AF4E704A850F80C3D1C6AFF
:104EF00006F0D8F8CBE705B0F0BD00002DE9F3418E
:104F0000214D2B680646986C06F0BEF8009030469E
:104F100006F0BAF802AC0146019054F8080D0830CA
:104F200004F000FD074628B30199009A2B68174C3E
:104F30001F6DD3F84C8001F10800083203F0EAFE3F
:104F4000684606F0AFF8019A2B68B2F90010B2F982
:104F50000220D9641A6501A8266006F0A3F830463D
:104F6000FFF7E4FE002323602B681F65C3F84C8025
:104F7000012705E0684606F095F801A806F092F8CA
:104F8000384602B0BDE8F08124000020489401209A
:104F90002DE9F347064606F077F8836A01909B07F0
:104FA00005D401A806F07EF802B0BDE8F087C46918
:104FB000002CF6D0204606F067F8836A02AD03F0B5
:104FC0000303032B45F8080D37D10199083104F08C
:104FD000A9FC002831D002A850F8043DB3F808908D
:104FE000B3F80A809F89B3F80EA006F05BF8684614
:104FF00006F058F82046FFF781FF70B1204606F012
:1050000039F800902046FFF7C3FF204606F032F83B
:105010000090304606F02EF80190304606F034F845
:105020000190204606F030F8019B0090A3F808900C
:10503000A3F80A809F81A3F80EA0009B68461C6A13
:1050400006F030F8B4E7000037B5044606F01CF867
:10505000826A019040F601031340012B05D001A89C
:1050600006F020F82046FFF761FE144B1B6813B3CF
:105070002046FFF78DFF204605F0FCFF8569046A96
:10508000CDB194B1204605F0F5FF836A03F0030328
:10509000032B02D12046FFF731FF2046FFF778FFB0
:1050A000204605F0E7FF046AEBE7284605F0E2FF3B
:1050B000046A8569E4E703B030BD00BF9494012021
:1050C0002DE9F347174D2B680646986C05F0DCFF79
:1050D0002A68B0F808A0B0F80A90B0F80C80C78928
:1050E00002AC083244F8040D00F1080392E8030012
:1050F00083E80300204605F0D5FF3068FFF7A4FFE2
:105100002B68986C05F0C0FF0190A0F808A0A0F8EB
:105110000A90A0F80C80C781204605F0C3FF02B0BA
:10512000BDE8F08724000020F7B507460D46284665
:1051300005F0AAFF836A02AC13F00206014644F8A8
:10514000040D04D1204605F0ADFF304616E0384688
:1051500003F012FE019B9E69204656B905F0A2FF9E
:10516000074B1A68954208D058682B1A5842584184
:1051700004E005F097FF3546D9E7012003B0F0BD04
:105180004C940120F0B5044685B00D46002949D065
:1051900005F07AFF0023036285610190284605F03F
:1051A00073FF019BC56902909F6A2DB9C46101A874
:1051B00005F078FF02A833E0284605F065FF04AE4D
:1051C00007F0080746F8040D77B9836A1A070BD56C
:1051D000019B1D62029B01A8DC6105F063FF02A830
:1051E00005F060FF30461BE002A805F05BFF30468B
:1051F00005F058FF284605F03DFF0390039B1D6A0C
:105200000DB91C620BE0284605F034FF002FF4D1E5
:10521000836A1B07F1D5039B1C62019B1D6201A8D9
:1052200005F040FF05B0F0BD70B5044605F022FF63
:1052300005468069A8B105F01DFFC369A342064673
:1052400005D1184605F016FF036AF36170BD43B13E
:10525000184605F00FFF036AA342F8D12B6A0362D8
:1052600070BD70BD03460846B3F90220B3F90010C3
:1052700004F0A2BB114B30B51C68626C85B00546CA
:10528000BAB11068516802AB03C30D4B186800B97E
:10529000A06C05F0F9FE04AC02A944F80C0DFFF770
:1052A000E1FF204605F0FEFE02A8294603F064FD5A
:1052B00002A802F0A1FF05B030BD00BF240000200D
:1052C000489401201FB50E4B1B6893F854200AB177
:1052D0000C4811E0986C05F0D7FE019003C802ACB1
:1052E00084E8030001A805F0DDFE074B196811B141
:1052F0002046FFF719FF2046FFF7BCFF04B010BDA2
:1053000024000020D490012048940120064B10B5C1
:105310000446186828B1A04204D005F0ABFE4069ED
:10532000F8E710BD012010BD6894012013B50446B4
:1053300000B305F0A9FE826A0190930717D5406A71
:1053400040B10D4B1B68A34204D001F0CDFD019B81
:1053500000225A622046FFF79BFC04463CB12046DF
:10536000FFF7E4FF204605F085FE046AF6E701A892
:1053700005F098FE02B010BD90940120B0F9002015
:10538000B0F904309A4208DCB0F90220B0F90630D6
:105390009A42CCBF002001207047002070470000D7
:1053A000F0B585B006460D46174605F063FE846AE3
:1053B0000190A30734D52846FFF7E0FF00282FD03F
:1053C00040F601032340012B2AD0304605F05CFE55
:1053D00002AC024601902946204603F09BFC204681
:1053E000FFF7CCFFC8B1019B9E6A44F22001314017
:1053F00003F1080529B128462946224604F0ECFAB3
:105400000BE094E803003E4385E803009E62054BF1
:105410001A8801321A8003F075FE01A805F042FED9
:1054200005B0F0BD649401202022FFF7B9BFF0B5AC
:105430000F4685B01546064648B305F025FE836A3B
:1054400004AC9B07024644F80C0D03D4204605F03B
:1054500029FE1CE002A8394603F05CFC0028F5D0C8
:10546000204605F01FFE304602A92A46FFF798FFA6
:105470003046FFF70DFC04464CB1204602A92A46EF
:10548000FFF7D5FF204605F0F5FD046AF4E705B007
:10549000F0BD2DE9FF41804617461D460C46002908
:1054A00030D0084605F0F0FD866A0190B307024649
:1054B00025D502A8414603F02DFC00B340F60103B8
:1054C0003340012B07D1019B02A899691A6A2B4628
:1054D000FFF7DFFF04E0204602A92A46FFF760FF3E
:1054E000019BDC695CB1BC4209D0204602A92A4676
:1054F000FFF79DFF204605F0BDFD046AF2E701A815
:1055000005F0D0FD04B0BDE8F08170B50546084651
:105510000C46164605F0AEFD836A13F4803F28461C
:10552000214632460CBF20234FF48043BDE8704033
:10553000FFF7AFBF2023FFF7ACBF13B5044605F05C
:10554000A3FD8169019041B1026AFFF7F3FF204694
:10555000FFF76AFE019B00229A6101A805F0A2FDF7
:1055600002B010BD1FB504AB019043F8101D694691
:1055700006F096F805B05DF804FB00230B808288E6
:105580004B800388D31A8B80C2884388D31ACB8080
:105590007047F0B50F4687B00546002833D005F0B8
:1055A00073FD866A0190B2072AD503C804ACF303E1
:1055B00084E8030002D52846FFF7B8FE5FB13868DB
:1055C000796802AB03C3019802A9FFF74BFE20469E
:1055D00002A903F0D1FB20462946FFF7A5FD78B1CB
:1055E00040F601033340012B06D1019B2046996907
:1055F0001A6AFFF79FFF03E028462146FFF714FFD2
:1056000001A805F04FFD07B0F0BD0021FFF7C1BFB5
:1056100010B5044605F02EFD80690028F9D1054B30
:105620001A68944205D05868844214BF4FF0FF3086
:10563000012010BD4C94012008B5FFF7E9FF0028B8
:1056400003DBBDE8084004F039B908BD0D4A136812
:1056500070B59D6C0446164608B90B4A14689C64E4
:105660002046FFF7E9FF03F0BFF9204605F002FDF1
:105670003368B0F90010B0F90220D9641A652846E1
:1056800070BD00BF24000020689401202DE9F74F71
:105690000C9D9B464B4B0746884692461E6865BB51
:1056A000494B1B8863B3494B1B685A7C484B53F8E2
:1056B00022305A1C24D01BB31D46284605F0E4FCBA
:1056C000B0F90020B0F90230019017449844BAF1C3
:1056D000000F05D1B0F904A0C2EB0A0A0AF1010AD1
:1056E000BBF1000F05D1B0F906B0C3EB0B0B0BF10A
:1056F000010B01A805F0D6FC02E06B1CDDD10025F2
:105700000F982C3005F00CFF0446002856D00D9B56
:105710001E432D4B1A8801321A8005F0B5FC0E9BF2
:1057200003610DF108092B4B826A49F8080D3340DB
:105730000780A0F802805744D8441343013F08F182
:10574000FF3883628780A0F80680684605F0AAFCCF
:10575000214B186848B105F08DFC0746204605F03E
:1057600089FC7B6943617C6100E01C60294620461E
:10577000FFF708FDB50602D52046FFF767FFF007E3
:1057800003D5164B1A6801321A60710602D52046FD
:1057900006F01CF8B2070DD5204605F075FC836AAB
:1057A000009043F002038362684605F07BFC2046CC
:1057B000FFF72BFF20460121FFF7D4FE204603B060
:1057C000BDE8F08F7494012044940120240000204F
:1057D0004C9401209F3F3F00689401209494012045
:1057E00073B5044600286ED0FFF790FD00286AD0FC
:1057F0002046FFF70DFF0B2105462046FFF7B2FEBE
:105800002046FFF705F9204605F03EFC0190406A6E
:1058100008B101F069FB2D4B2D4A002119602D4B79
:105820001B6852F82300A04208BF42F823102A4AFE
:1058300052F82310A14204BF002142F82310274B45
:105840001B682BB15A68A24204BF00225A60F7E7D6
:1058500020460721FFF77EF9019EF069FFF7C0FFA0
:10586000F369002BF9D12046FFF767FE1C4B18683F
:1058700050B105F0FFFB06464069A042F8D1204632
:1058800005F0F8FB43697361019B9B6ADA0703D556
:10589000144A1168013911609B0603D5124B1A880E
:1058A000013A1A8001A805F0FDFB104B1A8820462A
:1058B000013A1A8005F016FC002D04DB0C4B53F85E
:1058C0002500FFF7C3FE02B070BD00BFE4900120C9
:1058D0005C9401206C940120889401208094012024
:1058E0006894012094940120649401204494012040
:1058F0004C9401202DE9FF415D4F3B6893F8540023
:10590000002800F0B2805B4B5A69012A1C4603DD77
:10591000013A5A610020A8E004F108061B6996E8E4
:105920000300013302AD236185E8030023B9238816
:10593000ADF80830638811E0A3896289ADF80A20C8
:1059400001339BB2B4F90420ADF808301BB29A427F
:1059500006DA2388ADF80830E3890133ADF80A3060
:10596000BDF90A20B4F90630DFF808819A4204DD57
:105970006369013B0020636177E03B68986C05F048
:1059800083FBBDF90820B8F9003001909A421CD180
:10599000B8F80630ADF80E30B8F80430ADF80C3079
:1059A000334B1B689A6C5AB1104605F063FB804676
:1059B0000022006A2946FFF7CBF9D8F81820F2E751
:1059C000019B2946D869FFF7C3F9BDF80830ADF847
:1059D0000C303B689A6C6AB1104605F04BFB2946C7
:1059E00080460022006AFFF709FA0028EDD1D8F8B6
:1059F0001820F0E7019B2946D869FFF7FFF9002836
:105A0000E3D1A388BDF90820ADF80C301BB29A424F
:105A100007DD95E8030086E8030001A805F042FBD6
:105A200097E73B689A6C52B1104605F023FB074696
:105A30000022006A2946FFF725FABA69F3E704AFA6
:105A4000294657F80C3DD869FFF71CFA384605F08F
:105A500029FB236944F62062934289DC95E8030020
:105A600086E80300FFF72EFC012004B0BDE8F081BA
:105A700024000020CC9001202DE9F041394F3B68F3
:105A800093F8542086B0064612B9FFF71BFC64E079
:105A9000354D6A690132012A6A612C465DDC986CD9
:105AA00005F0F2FA4FF0FF322A61304A0090127886
:105AB0002AB100F1080302AA93E8030005E0826A14
:105AC00012F002080AD003C802AA82E8030002AD5D
:105AD00066B12846314603F04FF907E06B69684626
